:020000040800F2
:1000000060270020A9190008290700082B0700080D
:100010002F0700083307000837070008000000001A
:100020000000000000000000000000003B07000886
:100030003D070008000000003F07000841070008D6
:10004000C3190008C3190008C3190008C319000820
:10005000C3190008C3190008C3190008C319000810
:10006000C3190008C3190008C3190008C319000800
:10007000C3190008C3190008C3190008C3190008F0
:10008000C3190008C31900083F150008C319000868
:10009000C3190008C3190008C3190008C3190008D0
:1000A000C3190008C3190008C3190008C3190008C0
:1000B000C3190008C3190008C3190008C3190008B0
:1000C000C3190008C3190008C3190008C3190008A0
:1000D000C3190008D73A0008C3190008C31900085B
:1000E000C3190008C3190008C3190008C319000880
:1000F000C3190008C3190008C3190008C319000870
:10010000C3190008C3190008C3190008C31900085F
:10011000C3190008C3190008C3190008C31900084F
:10012000C3190008C3190008C3190008C31900083F
:10013000C3190008C3190008C3190008C31900082F
:10014000C3190008C3190008C3190008C31900081F
:10015000C3190008C3190008C3190008C31900080F
:10016000C3190008C3190008C3190008C3190008FF
:10017000C3190008C3190008C3190008C3190008EF
:10018000C3190008C319000800F002F800F03CF899
:100190000AA090E8000C82448344AAF10107DA45E2
:1001A00001D100F031F8AFF2090EBAE80F0013F0F8
:1001B000010F18BFFB1A43F001031847B00A0100F2
:1001C000D00A0100103A24BF78C878C1FAD8520783
:1001D00024BF30C830C144BF04680C6070470000C1
:1001E0000023002400250026103A28BF78C1FBD840
:1001F000520728BF30C148BF0B6070471FB504F0DD
:100200009DFC1FBD10B510BD04F0CAF91146FFF7E3
:10021000F5FF00F03CF904F0E8F903B4FFF7F2FF52
:1002200003BC03F0F9FB0000F8B50125012452E0FE
:10023000FB48FC4E06EB84060090D6ED000A9FEDCD
:10024000FA0A9FEDFA1A01EE600ABCEEC00A10EE3F
:10025000106AB3B2AAB2661EF24F07EB8606D6ED5D
:10026000000A9FEDF10A9FEDF11A01EE600ABCEE63
:10027000C00A10EE106AB1B26E1EB0B200F09DFB63
:100280004FF47C00EA4E06EB84060090D6ED000A9F
:100290009FEDE50A9FEDE51A01EE600ABCEEC00A8B
:1002A00010EE106AB3B2AAB2661EE14F07EB8606E3
:1002B000D6ED000A9FEDDC0A9FEDDC1A01EE600A24
:1002C000BCEEC00A10EE106AB1B26E1EB0B200F001
:1002D00074FB6D1C641CB4F5007FA9D3F8BDF8B5A0
:1002E000DF2502245EE0D34800EB840090ED000A95
:1002F000F0EE080A80EE201A9FEDCF0A30EE410A98
:10030000BCEEC00A10EE100A86B2601EC94901EBAD
:100310008000D0ED000AB0EE081A80EE810ADFED11
:10032000C60A30EEC00ABCEEC00A10EE100A87B250
:10033000BB48AAB2691E009088B23346394600F025
:100340003CFBBE4800EB8400D0ED000AB0EE081A7A
:1003500080EE810ADFEDB80A30EEC00ABCEEC00ABA
:1003600010EE100A86B2601EB44901EB800090EDD9
:10037000000AB0EE081AC0EE010A9FEDAF0A30EE97
:10038000600ABCEEC00A10EE100A87B24FF47C007F
:10039000AAB2691E009088B23346394600F00DFBC0
:1003A0006D1C641CFF2C9ED9F8BDDFEDA50AB0EED4
:1003B000600A002000BF11E09D4901EB8001D1EDF2
:1003C000000AF4EEC00AF1EE10FA06DD984901EBDE
:1003D0008001D1ED000AB0EE600A401CB0F5007F4C
:1003E000EAD370472DE9F0412DED028B84B005462C
:1003F0009FED930AB0EE408A002400260027A04615
:100400004FF4FA6090FBF5F8012412E08B4800EB02
:10041000840090ED000AB4EEC80AF1EE10FA07DD90
:100420002646864800EB840090ED000AB0EE408A34
:10043000641C802CEAD305FB06F7102078494FF4A2
:100440007C02CDE900210290B2B202234FF49671F2
:10045000002000F00FFF102071494FF47C02CDE91D
:1004600000210290754800EB880090ED000ABCEE78
:10047000C00A10EE100A82B20523F021002000F01D
:10048000F9FE384604B0BDEC028BBDE8F0812DEDDD
:10049000028B88B040F28F2605259FED690AB0EEE9
:1004A000408A4FF00009280201F09EFAA82003F0CC
:1004B00031FA01F05FF901F047FA00F0C5FF294673
:1004C000304601F020F85648AB014FF4F07200219D
:1004D0000090084600F03EFA01230022190203A80A
:1004E00003F006FF0EE1701C691C4843554991FB5F
:1004F000F0F74FEA1728002096234FF4F0721946C0
:10050000009000F05AFA5048006801287DD100247C
:1005100012E0474800EB840090ED000A4B4901EBE4
:10052000C40080ED000A9FED460A6000401C01EB0C
:10053000800080ED000A641CFF2CEADD434903A81B
:1005400003F0B8FE4FF480723C49404803F008FBCA
:10055000FFF72BFFB0EE408A4046FFF743FF81468E
:10056000002010212E4A4FF47C03CDE90021029097
:1005700037A24FF4827100F051FE102028494FF449
:100580007C030322B0EE480ACDE900104FF48271DB
:10059000282000F0BAFE00201021214A4FF47C03ED
:1005A000CDE9002102902CA24FF48C7100F036FEB0
:1005B00010201B494FF47C02CDE9002102901FFA64
:1005C00089F205234FF48C71282000F053FE10208F
:1005D00013494FF47C02CDE900210290BAB2052301
:1005E0004FF49671282000F045FE10200C494FF47E
:1005F0007C02CDE9002102901FFA88F205234FF416
:100600009671502000F036FE00E04FE0FFF70CFE40
:10061000FFF765FE00200C49086000242BE0000075
:10062000FCFCFC00380000200000164300002042C3
:10063000381800203814002000009B433810002098
:100640000000000000BD0105140000203808002053
:100650005670703A000000004672653A00000000D3
:10066000294800EB840090ED000A284800EB840044
:1006700080ED000A641CB4F5007FF1DB00240AE081
:10068000234800EB840090ED000A224800EB840030
:1006900080ED000A641CFF2CF2DD012240F20521EE
:1006A0001D4801F003FC322003F096F910211B488D
:1006B00001F062F901280FD10021194802F0E4F994
:1006C000012D00DD6D1EA9B20122154802F090F93E
:1006D0000121134802F0D8F90121124801F04CF928
:1006E00001280FD100210E4802F0CEF9082D00DAC2
:1006F0006D1CA9B201220A4802F07AF901210848CA
:1007000002F0C2F9EFE6000038180020380000209F
:100710003810002038140020002001400010024052
:100720000004004000000240704700BFFEE700BF29
:10073000FEE700BFFEE700BFFEE770477047704767
:10074000704700000CB500200190009076480068CA
:1007500040F480307449086000BF7348006800F4BA
:10076000003000900198401C0190009818B9019841
:10077000B0F5A04FF1D16C48006800F4003010B122
:100780000120009001E0002000900098012846D14F
:1007900065484030006840F080506349403108604F
:1007A0006248006840F44040604908605E48083094
:1007B00000685D49083108600846006840F4004060
:1007C00008600846006840F4A05008605848091FB7
:1007D0000860081F006840F08070091F086000BFB3
:1007E0005148006800F000700028F9D040F2057010
:1007F000504908604C480830006820F003004A491E
:10080000083108600846006840F00200086000BF38
:1008100045480830006800F00C000828F8D10CBDED
:1008200010B54548006840F47000434908603E48F0
:10083000006840F001003C49086000203A49083156
:100840000860394800683D490840374908603C481D
:10085000091D0860081F006820F48020091F086037
:10086000002031490C310860FFF76CFF4FF0006049
:1008700031498039086010BD70B500200022022384
:1008800000240221284D08352D6805F00C0020B108
:10089000042806D0082834D107E02A4D2A4E3560B6
:1008A00033E02A4D284E35602FE01F4D2D1D2D6859
:1008B000C5F380541C4D2D1D2D6805F03F0154B12A
:1008C000224DB5FBF1F5184E361D3668C6F3881675
:1008D00005FB06F209E01B4DB5FBF1F5124E361D86
:1008E0003668C6F3881605FB06F20F4D2D1D2D68E0
:1008F000C5F301456D1C6B00B2FBF3F5124E35607C
:1009000003E0104D104E356000BF00BF064D0835A6
:100910002D68C5F303150E4E705D0B4D2D68C54057
:10092000094E356070BD0000003802400070004084
:1009300008544007003C024088ED00E0FFFFF6FE4F
:10094000103000240024F4000000002000127A007F
:10095000040000202DE9F04706460F4614461D46C8
:10096000DDF820A0681E83B2601E82B23946304690
:1009700000F0D7FEB8460EE0B14606E0504600F063
:10098000B2FE09F101001FFA80F9A145F6DB08F17A
:1009900001001FFA80F8A845EEDBBDE8F08770B5CE
:1009A00004460D4616462B4622462946204600F0B0
:1009B000B8FE304600F097FE70BD2DE9FF4F85B0C0
:1009C00081468A460020039083460798A0EB0905DC
:1009D0000898A0EB0A06CDF80890CDF804A0002DE9
:1009E00001DD012705E00DB9002702E04FF0FF37D8
:1009F0006D42002E02DD4FF0010806E016B94FF0FF
:100A0000000802E04FF0FF387642B54201DD2C4687
:100A100000E03446002004901EE0019A91B2029A50
:100A200090B2129AFFF7BBFF039828440390B34497
:100A30000398A04205DD0398001B039002983844F8
:100A40000290A34504DDABEB040B019840440190F8
:100A50000498401C80B20490611C04988842DCDB3E
:100A600009B0BDE8F08F2DE9F84305460E4617465C
:100A70009846089C33463A46314628460094FFF78C
:100A80009CFF43462A46314628460094FFF795FFCF
:100A900043463A46414628460094FFF78EFF4346B8
:100AA0003A46314638460094FFF787FFBDE8F883A1
:100AB0002DE9F04706460F469046994600254446E4
:100AC00041E07A1B91B2321B90B24A46FFF767FFB2
:100AD0007A1B91B2321990B24A46FFF760FF3A1979
:100AE00091B2721B90B24A46FFF759FF3A1B91B27E
:100AF000721B90B24A46FFF752FF7A1991B232192F
:100B000090B24A46FFF74BFF3A1B91B2721990B26E
:100B10004A46FFF744FF3A1991B2721990B24A4619
:100B2000FFF73DFF7A1991B2321B90B24A46FFF7A8
:100B300036FF6D1C05FB05F004FB040108FB08F003
:100B4000814200DD641EA542BBDDBDE8F0872DE9D2
:100B5000FF5F0646894692469B460F9C0020039005
:100B600000962046E21704EB5272D2102146E3179A
:100B700004EB5373DB10A4EBC3030BB1012300E0C0
:100B800000231A44624392B201920520029000258C
:100B900071E005EB8510FA4911F810009AF8001081
:100BA000884265D105EB8510F54901EB400040789E
:100BB0009AF8011088425BD109EB0400401E83B211
:100BC0003019401E82B24946304600F0AAFD002787
:100BD0004BE04FF0000842E01098F8B905EB8510A3
:100BE000E74901EB4000801CC05D012101FA08F1DA
:100BF000084018B1584600F076FD02E00E9800F06B
:100C000072FD0398401CC0B20390039890FBF4F16E
:100C100004FB1100F8B90020039023E005EB8510D8
:100C2000D74901EB4000801CC05D012101FA08F1A9
:100C3000084020B15A4649463046FFF7B0FE701CC6
:100C400086B20098301AA04205D1009E09F1010039
:100C50001FFA80F906E008F1010000F0FF08B8F182
:100C6000080FB9DB00BF781CC7B201988742B0DB20
:100C700000BF681C85B2029885428ADBBDE8FF9FF1
:100C80002DE9FF5F0646894692469B460F9C002051
:100C9000039000962046E21704EB5272D2102146D0
:100CA000E31704EB5373DB10A4EBC3030BB1012375
:100CB00000E000231A44624392B2019205200290A0
:100CC000002579E005EB850000EB4510AD4911F8F2
:100CD00010009AF8001088426BD105EB850000EBFC
:100CE0004510A84901EB400040789AF8011088426D
:100CF0005FD109EB0400401E83B23019401E82B25E
:100D00004946304600F00DFD00274FE04FF0000847
:100D100046E0109808BB05EB850000EB45109949AB
:100D200001EB4000801CC05D012101FA08F1084080
:100D300018B1584600F0D7FC02E00E9800F0D3FC42
:100D40000398401CC0B20390039890FBF4F104FB9D
:100D5000110008BB0020039025E005EB850000EBA7
:100D60004510884901EB4000801CC05D012101FA5B
:100D700008F1084020B15A4649463046FFF70FFEB9
:100D8000701C86B20098301AA04205D1009E09F16D
:100D900001001FFA80F906E008F1010000F0FF08E9
:100DA000B8F1080FB5DB00BF781CC7B201988742C5
:100DB000ACDB00BF681C85B20298854282DBBDE8CF
:100DC000FF9F2DE9FF5F0646894692469B460F9C92
:100DD0000020039000962046E21704EB5272D210D6
:100DE0002146E31704EB5373DB10A4EBC3030BB1F1
:100DF000012300E000231A44624392B201920520CD
:100E00000290002571E005EB05105F4911F8100014
:100E10009AF80010884265D105EB05105A4901EB9C
:100E2000400040789AF8011088425BD109EB040039
:100E3000401E83B23019401E82B24946304600F04F
:100E400070FC00274BE04FF0000842E01098F8B922
:100E500005EB05104C4901EB4000801CC05D0121F1
:100E600001FA08F1084018B1584600F03CFC02E0D5
:100E70000E9800F038FC0398401CC0B20390039811
:100E800090FBF4F104FB1100F8B90020039023E07B
:100E900005EB05103C4901EB4000801CC05D0121C1
:100EA00001FA08F1084020B15A4649463046FFF79A
:100EB00076FD701C86B20098301AA04205D1009EC3
:100EC00009F101001FFA80F906E008F1010000F0C5
:100ED000FF08B8F1080FB9DB00BF781CC7B2019852
:100EE0008742B0DB00BF681C85B2029885428ADB6E
:100EF000BDE8FF9F2DE9FF5F0646894692469B4667
:100F00000F9C0020039000962046E21704EB5272DB
:100F1000D2102146E31704EB5373DB10A4EBC30399
:100F20000BB1012300E000231A44624392B2019204
:100F300005200290002581E005EB850000EBC5004F
:100F4000124911F810009AF80010884273D105EB8D
:100F5000850000EBC5000D4901EB400040789AF890
:100F60000110884267D109EB0400401E83B230199A
:100F7000401E82B24946304600F0D3FB002757E0BE
:100F8000E281000870800008C67F0008447F0008E6
:100F90004FF0000846E0109808BB05EB850000EB19
:100FA000C500FE4901EB4000801CC05D012101FA33
:100FB00008F1084018B1584600F095FB02E00E9881
:100FC00000F091FB0398401CC0B20390039890FB83
:100FD000F4F104FB110008BB0020039025E005EBB1
:100FE000850000EBC500ED4901EB4000801CC05DB1
:100FF000012101FA08F1084020B15A46494630461D
:10100000FFF7CDFC701C86B20098301AA04205D1C3
:10101000009E09F101001FFA80F906E008F10100C5
:1010200000F0FF08B8F1080FB5DB00BF781CC7B2AD
:1010300001988742ACDB00BF681C85B202988542EC
:10104000FFF67AAFBDE8FF9F2DE9FE4F8046894647
:1010500017469A46DDE90D460C9D36E00C2C09D169
:1010600053463A4649464046CDE901460095FFF7CA
:1010700041FF25E0102C09D153463A4649464046E7
:10108000CDE901460095FFF79CFE19E0182C09D127
:1010900053463A4649464046CDE901460095FFF79A
:1010A000EFFD0DE0202C09D153463A464946404613
:1010B000CDE901460095FFF74AFD01E0BDE8FE8F4E
:1010C000BF1C08EB04001FFA80F838780028C5D14F
:1010D00000BFF3E72DE9FF5F80468A4617469B462F
:1010E0000F9D00200290CDF80080284605EBD071BE
:1010F000C1F347042046E21704EB5272D210214696
:10110000E31704EB5373DB10A4EBC3030BB1012310
:1011100000E000231A446A4392B20192A7F1200032
:10112000C7B20AEB0500401E83B208EB0400401E64
:1011300082B25146404600F0F4FA002669E00C2DD8
:1011400007D107EB4700964901EB8000805D0390D3
:101150001BE0102D05D1934800EB0710805D039034
:1011600013E0182D07D107EB47008F4901EB001062
:10117000805D039009E0202D05D18C4800EB87109D
:10118000805D039001E0BDE8FF9F4FF000093AE069
:101190001098C8B9012000FA09F00399084018B165
:1011A000584600F0A0FA02E00E9800F09CFA02986F
:1011B000401CC0B20290029890FBF4F104FB1100B5
:1011C000E8B90020029021E0012000FA09F003991B
:1011D000084020B15A4651464046FFF7E0FB08F16F
:1011E00001001FFA80F80098A8EB0000A04206D189
:1011F000DDF800800AF101001FFA80FA06E009F12B
:10120000010000F0FF09B9F1080FC1DB00BF701C3D
:1012100086B20198864292DB00BFB4E72DE9FE4F0B
:1012200006460F4614469846DDE90D5ADDF8309023
:1012300010E0CDE9015ACDF80090227843463946B6
:101240003046FFF747FF284605EBD07106EB6101FA
:101250008EB2641C20780028EBD1BDE8FE8F10B55B
:101260000246012000E050430B1EA1F10104E1B24F
:10127000F9D110BD2DE9FF4F85B0074691461D46B7
:10128000DDE913A600200490304606EBD071C1F3CF
:10129000470B002434E0281B401EC1B20A20FFF790
:1012A000DEFFB9FBF0F00A21B0FBF1F201FB1208FE
:1012B0000498A0B9681EA04211DDB8F1000F0CD14E
:1012C000002004FB0B71CDE900A6029088B2202219
:1012D000129B0699FFF7FEFE10E00120049000200B
:1012E00008F13001CAB204FB0B71CDE900A60290EF
:1012F00088B2129B0699FFF7EDFE00BF601CC4B2D6
:10130000AC42C8DB09B0BDE8F08F2DE9FF4F2DEDF1
:10131000020B2DED028B83B00746B0EE408A1446D7
:10132000DDE91486304606EBD071C1F3470A9FED24
:10133000200A28EE000ABCEEC00A10EE100A1FFABE
:1013400080FB00253DE0601B401EC1B20A20FFF774
:1013500086FFBBFBF0F00A21B0FBF1F201FB1209A2
:10136000A01EA84210D10020A11E01FB0A71CDE9E8
:101370000086029088B22E220A9B0899FFF7AAFEE7
:10138000681CC5B2601CC4B2002009F13001CAB2A9
:1013900005FB0A71CDE9008602900BE0447F00084E
:1013A000504B0008C44F0008B4550008846700087B
:1013B0000000C84288B20A9B0899FFF78BFE681CA0
:1013C000C5B2A542BFDB03B0BDEC028B06B0BDE8E1
:1013D000F08F2DE9F05F8046894615461E460A9F2C
:1013E000002409EB0600401E83B208EB0500401EF6
:1013F00082B24946404600F094F9A2461FE04FF001
:10140000000B16E004EB4401785C00F066F904EB95
:101410004401491C785C00F060F904EB4401891C2C
:10142000785C00F05AF9601C84B20BF101001FFADD
:1014300080FBB345E6DB0AF101001FFA80FAAA45FA
:10144000DDDBBDE8F09F000000B58DB0012108464E
:1014500001F090F80121080201F0E6F80220059061
:1014600003208DF8180000208DF81B0005A95548B1
:1014700000F0E2FD0121080201F02BF900214FF4F8
:10148000807001F026F9002001904FF48030029026
:1014900000200390049001A800F050FB002007906A
:1014A0008DF820008DF821004FF0805009904010F9
:1014B0000A9000200B9001208DF8300007A94248C7
:1014C00000F00DFB012240F205213F4800F0EEFC48
:1014D00012208DF8000003208DF8010002208DF805
:1014E000020001208DF80300684600F082FA012115
:1014F000354800F03AFB072301221146324800F03C
:1015000074FB0DB000BD3EB504460D46012102201E
:1015100001F079F8ADF800500020ADF80200019418
:10152000ADF808006946294801F025FA202127482E
:1015300001F07AFF0121254801F0A6FA3EBD10B561
:101540002DED068B0221204800F0CCFC10B31E4884
:1015500000F0E3FB044603F0DFF941EC1A0B9FEDCA
:101560001C0B53EC102B03F0EBF941EC190B9FED26
:101570001A0B53EC102B03F077F841EC180B03F027
:1015800041F817490A680968491C154B1960154943
:1015900041F8220012480068B0F5007F0BD100200E
:1015A0000F490860012010490860002240F205211F
:1015B000054800F07BFC0221034800F0B2FCBDECC2
:1015C000068B10BD000002400020014000040040D6
:1015D0006666666666660A40000000000000B0406D
:1015E0001800002038180020140000201CB501212C
:1015F0005F2000F0BFFF4FF48050009001208DF875
:10160000040000208DF8060003208DF8050001205D
:101610008DF807006946C94800F00EFD4FF480516F
:10162000C64800F085FD48F23200009001208DF898
:10163000040000208DF8060003208DF8050001202D
:101640008DF807006946BE4800F0F6FC48F232010A
:10165000BB4800F06DFD4FF4A060009001208DF8B4
:10166000040000208DF8060003208DF805000120FD
:101670008DF807006946B34800F0DEFC4FF4A06126
:10168000B04800F055FD1CBD70B504460221AC48C1
:1016900000F050FD002519E04FF48051A74800F0FC
:1016A00049FD04F0800020B12021A54800F040FD54
:1016B00003E02021A24800F03DFD4FF480519F48F7
:1016C00000F036FD6006040E681CC5B2082DE3DB91
:1016D00002219B4800F02CFD70BD10B50446204649
:1016E000FFF7D2FF10BD10B50446C4F30740FFF763
:1016F000CBFFC4F30720FFF7C7FFE0B2FFF7C4FF3B
:1017000010BD10B504464FF400418D4800F012FDA5
:101710002046FFF7B9FF4FF40041894800F008FD6B
:1017200010BD2DE9F04104460D4616461F462A20FD
:10173000FFF7E7FF2012FFF7D0FFE0B2FFF7CDFF82
:101740003012FFF7CAFFF0B2FFF7C7FF2B20FFF7F9
:10175000D8FF2812FFF7C1FFE8B2FFF7BEFF38122B
:10176000FFF7BBFFF8B2FFF7B8FF2C20FFF7C9FF68
:10177000BDE8F08110B5FFF739FF1021704800F087
:10178000D9FC642002F028F910216D4800F0D0FC4B
:10179000642002F021F94FF480716A4800F0C8FC1F
:1017A000642002F019F9E020FFF7ABFF0020FFF7FB
:1017B00094FF0720FFF791FF0F20FFF78EFF0D200A
:1017C000FFF78BFF1B20FFF788FF0A20FFF785FF3D
:1017D0003C20FFF782FF7820FFF77FFF4A20FFF7CA
:1017E0007CFF0720FFF779FF0E20FFF776FF092027
:1017F000FFF773FF1B20FFF770FF1E20FFF76DFF41
:101800000F20FFF76AFFE120FFF77BFF0020FFF7C3
:1018100064FF2220FFF761FF2420FFF75EFF062010
:10182000FFF75BFF1220FFF758FF0720FFF755FF78
:101830003620FFF752FF4720FFF74FFF4720FFF703
:101840004CFF0620FFF749FF0A20FFF746FF07205D
:10185000FFF743FF3020FFF740FF3720FFF73DFF42
:101860000F20FFF73AFFC020FFF74BFF1020FFF7D4
:1018700034FF1020FFF731FFC120FFF742FF412066
:10188000FFF72BFFC520FFF73CFF0020FFF725FFE8
:101890002220FFF722FF8020FFF71FFF3620FFF7EF
:1018A00030FF2820FFF719FF3A20FFF72AFF6620B4
:1018B000FFF713FFB020FFF724FF0020FFF70DFF15
:1018C000B120FFF71EFFB020FFF707FF1120FFF741
:1018D00004FFB420FFF715FF0220FFF7FEFEB6203D
:1018E000FFF70FFF0220FFF7F8FE0220FFF7F5FEDB
:1018F000B720FFF706FFC620FFF7EFFEE920FFF74E
:1019000000FF0020FFF7E9FEF720FFF7FAFEA9200D
:10191000FFF7E3FE5120FFF7E0FE2C20FFF7DDFE8E
:101920008220FFF7DAFE1120FFF7EBFE782002F0AD
:1019300053F82920FFF7E5FE10BD00000018024013
:10194000000C0240001002401CB50121112000F0E3
:1019500011FE1020009000208DF8040002208DF868
:10196000070069460E4800F067FB012000906946B9
:101970000C4800F061FB1CBD70B504460D462946BD
:10198000204600F0BBFB012808D100BF29462046B5
:1019900000F0B4FB0128F9D0012070BD0020FCE765
:1019A00000100240000002400948804709480047F3
:1019B000FEE7FEE7FEE7FEE7FEE7FEE7FEE7FEE7FF
:1019C000FEE7FEE704480549054A064B704700005C
:1019D00021080008890100086021002060270020FC
:1019E000602300206023002032490143324A116005
:1019F000704770B5002100230F22C4781CB32E4C11
:101A0000246804F4E064C4F5E064C4F30721C1F180
:101A10000404E3B20A4144789C40E1B28478144063
:101A200021430C07210E254C05786155047804F0FC
:101A30001F050124AC4005786D11AD0005F1E025CE
:101A4000C5F8004109E0047804F01F050124AC400A
:101A50001B4D0678761145F8264070BD194A0A409C
:101A60000243154B1B1F1A60704739B1124A121DF1
:101A700012680243104B1B1D1A6006E00E4A121D2D
:101A8000126882430C4B1B1D1A607047042808D152
:101A90004FF0E021096941F004014FF0E0221161AB
:101AA00007E04FF0E021096921F004014FF0E02246
:101AB000116170470000FA050CED00E000E400E061
:101AC00080E100E080FFFF1F10B50121080200F057
:101AD00000FE00214FF4807000F0FBFD10BD30B51A
:101AE0000246002000235068F84C20400D790C6815
:101AF00044EA0524204350609068F54C2040D1E929
:101B000003542C438D682C434D7944EA450420430B
:101B10009060D06A20F470000C7D641EE4B2234310
:101B200040EA0350D06230BD002101600171417173
:101B30008160C16001610121017570470021E54AA2
:101B40001168E54A1140D0E900231A4383681A431B
:101B5000C3681A431143E14AC2F8041370470021D5
:101B6000016041608160C160704721B1826842F0CC
:101B70000102826003E0826822F001028260704705
:101B80000A4600214168D64B194011434160704715
:101B90004162826270470A460021416821F01F01BC
:101BA00011434160704738B1CA49096841F40001E6
:101BB000CA4AC2F8041306E0C649096821F40001C4
:101BC000C64AC2F80413704738B1C249096841F4E3
:101BD0008001C24AC2F8041306E0BE49096821F434
:101BE0008001BE4AC2F804137047F0B504460D46A2
:101BF00000200021092D11DDE068A5F10A0606EBA1
:101C00004607072606FA07F18843A5F10A0606EB00
:101C1000460603FA06F10843E0600CE0206905EB94
:101C20004507072606FA07F1884305EB450603FA40
:101C300006F108432061072A0FDA606B561E06EB97
:101C400086071F2606FA07F18843561E06EB86060E
:101C500005FA06F10843606322E00D2A0FDA206BD3
:101C6000D61F06EB86071F2606FA07F18843D61F04
:101C700006EB860605FA06F10843206310E0E06AE9
:101C8000A2F10D0606EB86071F2606FA07F1884328
:101C9000A2F10D0606EB860605FA06F10843E0629E
:101CA000F0BD816841F080418160704701460020AD
:101CB0008A6802F080420AB1012000E000207047EB
:101CC00021B1826842F48062826003E0826822F47B
:101CD00080628260704721B1826842F002028260B5
:101CE00003E0826822F002028260704710B50A4663
:101CF00000210023416821F46041531E41EA433131
:101D0000416010BD21B1426842F40062426003E0CC
:101D1000426822F40062426070470146C86C80B29B
:101D200070476C48001D0068704721B1826842F41A
:101D30008072826003E0826822F480728260704761
:101D400021B1826842F40072826003E0826822F46A
:101D500000728260704738B15E49096841F40051F1
:101D60005E4AC2F8041306E05A49096821F400519A
:101D70005A4AC2F804137047F0B5044615460020CD
:101D800000220026092911DDE068A1F10A0707EB0E
:101D9000470C072707FA0CF29043A1F10A0707EB5B
:101DA000470703FA07F21043E0600CE0206901EBFB
:101DB000410C072707FA0CF2904301EB410703FAA5
:101DC00007F210432061A06BC0F30156EF1C06F12F
:101DD000010CA7EB0C0707EB870C1F2707FA0CF287
:101DE0009043EF1C06F1010CA7EB0C0707EB8707EC
:101DF00001FA07F21043A063F0BD10B50A460021B6
:101E00000023816B21F44011531E41EA0351816389
:101E100010BD08B5002300930090009B0B44009375
:101E2000009B1A6008BD0A460021816821F47021D8
:101E30001143816070470A460021816821F44011F6
:101E4000114381607047816841F48001816070476F
:101E5000014600208A6802F480020AB1012000E0F5
:101E60000020704721B1426842F48062426003E082
:101E7000426822F480624260704721B1426842F4B5
:101E80008052426003E0426822F480524260704710
:101E900008B5024600200090009201F12800009B46
:101EA000184400900098006880B208BD10B50B4639
:101EB0000021D9B2012404FA01F11AB144680C439B
:101EC000446002E044688C43446010BDFFFEFFFCA8
:101ED000FDF7FFC004230140E030FCFF002001407B
:101EE000FFFD3FFF0246002013680B400BB10120AD
:101EF00000E000207047CA430260704770B5024698
:101F00000020002300240B12556801268E4005EAAC
:101F1000060415681D4015B10CB1012000E0002039
:101F200070BD00220A12D3430360704710B5044607
:101F30009848844208D10121084600F086FB002120
:101F4000012000F082FB76E09348844208D1012111
:101F5000022000F07AFB0021022000F076FB6AE00C
:101F60008E48844208D10121042000F06EFB00213C
:101F7000042000F06AFB5EE08948844208D1012118
:101F8000082000F062FB0021082000F05EFB52E018
:101F90008448844208D10121102000F056FB002122
:101FA000102000F052FB46E07F48844208D1012116
:101FB000202000F04AFB0021202000F046FB3AE000
:101FC0007A48844208D10121402000F03EFB0021E4
:101FD000402000F03AFB2EE07548844208D10121F0
:101FE000802000F032FB0021802000F02EFB22E058
:101FF0007048844208D10121801500F026FB0021A1
:10200000A01500F022FB16E06B48844208D10121A4
:10201000401500F01AFB0021601500F016FB0AE0E5
:102020006648844207D10121001500F00EFB002113
:10203000201500F00AFB10BDF0B50A460021002370
:10204000002400BF3DE0012505FA01F3156805EA0B
:1020500003049C4234D105684F000326BE40B543BB
:10206000056015794E00B540066835430560157961
:10207000012D02D01579022D16D185684F00032657
:10208000BE40B543856055794E00B54086683543FE
:102090008560456801268E40B54345604568967960
:1020A0008E40B6B235434560C5684F000326BE403A
:1020B000B543C560D5794E00B540C6683543C560A7
:1020C000491C1029BFD3F0BD4FF6FF7101600021FC
:1020D000017141718171C171704708B54FF480324F
:1020E0000092009A0A430092009AC261C161009A6C
:1020F000C261C2690092C269009208BD0246002016
:1021000013690B400BB1012000E00020704701462D
:10211000086980B270470246002053690B400BB13A
:10212000012000E0002070470146486980B27047F6
:1021300001837047418370470AB1018300E0418306
:1021400070474161704742694A4042617047F0B54B
:10215000002300244D07ED0E02FA05F3CE1000F126
:10216000200555F826504E07F70E0F26BE40B54302
:10217000CF1000F1200646F82750CE1000F12005C0
:1021800055F8265045EA0304CE1000F1200545F825
:102190002640F0BD0000024000040240000802405A
:1021A000000C0240001002400014024000180240DF
:1021B000001C02400020024000240240002802408F
:1021C000F948006840F00100F74908600020F6492E
:1021D00008310860F4480068F4490840F249086092
:1021E000F348091D0860F348EF4984310860F0485E
:1021F0001038091D0860EC48006820F48020EA4986
:1022000008600020E8490C310860E7498C3108601B
:1022100070470021E44A921C117011460870704703
:1022200010B501460022002300204A11012A02D1E4
:10223000DD4C236808E0022A03D1DB4C70342368AC
:1022400002E0D94C7434236801F01F020124944049
:102250001C400CB1012000E0002010BD38B500206A
:1022600000900024002500BF3120FFF7D9FF05466C
:102270000098401C00900098B0F5A04F01D0002DB0
:10228000F2D03120FFF7CCFF08B1012400E0002498
:10229000204638BD01460020C34A106820F0F800EF
:1022A00040EAC10010607047C349086070470021D0
:1022B000BD4A703211701170012802D004280AD171
:1022C00004E00121B84A7032117005E00521B64AD8
:1022D0007032117000E000BF00BF7047B74908605E
:1022E000704770B5049C41EA82150126C6EB53067F
:1022F00045EA0645054345EA0465AB4E361D3560A3
:1023000070BDAD4908667047820142EA0172A64B72
:1023100084331A607047A8498866704710B58301F6
:1023200043EA016343EA02739F4C8834236010BD83
:10233000A14908677047A049C86470470246002059
:10234000994B0833186820F0EC6042EA0103184307
:10235000954B08331860704702460020924B0833B3
:10236000186820F0784042EA010318438E4B083386
:1023700018607047014600208B4A0832106820F030
:10238000030008431060704787480830006800F079
:102390000C00704701460020834A0832106820F084
:1023A000F000084310607047014600207E4A083262
:1023B000106820F4E0500843106070470146002088
:1023C000794A0832106820F4604040EAC100106089
:1023D0007047F0B5002100220024022500260223C8
:1023E000714F08373F6807F00C0121B1042905D06F
:1023F000082937D105E0724F076036E0714F07605A
:1024000033E0694F3F1D3F68C7F38056664F3F1D5D
:102410003F6807F03F036EB16A4FB7FBF3F7DFF891
:1024200088C10CF1040CDCF800C0CCF3881C07FB5D
:102430000CF40CE0624FB7FBF3F7DFF86CC10CF162
:10244000040CDCF800C0CCF3881C07FB0CF4564FDE
:102450003F1D3F68C7F301477F1C7D00B4FBF5F7C4
:10246000076002E0564F076000BF00BF4E4F0837BD
:102470003F6807F0F0010909534F7A5C0768D740BD
:102480004760494F08373F6807F4E051890A4E4FCB
:102490007A5C4768D7408760434F08373F6807F446
:1024A0006041490B484F7A5C4768D740C760F0BD30
:1024B000002100F44072B2F5407F0AD13A4A083256
:1024C000116821F4F811414A02401143364A08329A
:1024D0001160354A70321268C0F30B031A43324B55
:1024E00070331A6070473549443908607047334982
:1024F000403908607047364908607047014600203F
:10250000294A8C32106820F01F004A1E1043264AC8
:102510008C321060704701460020234A8C321068CC
:1025200020F4F8504A1E40EA02201F4A8C32106004
:102530007047014600201C4A8C32106820F440107D
:1025400008431060704701460020174A8C3210681B
:1025500020F4400008431060704701460020124AF2
:102560008C32106820F440300843106070471949DD
:102570000860704739B10C4A3032126802430A4B86
:1025800030331A6006E0084A303212688243064B44
:1025900030331A607047F9B1034A3432126802438B
:1025A000014B34331A601CE000380240FFFFF6EAAA
:1025B000103000240030002000004742800E4742C7
:1025C0000024F40000127A001C000020FFFCFF0F22
:1025D0005C014742E01147428F4A126882438E4BAA
:1025E0001A60704739B18C4A121D126802438A4B37
:1025F0001B1D1A6006E0884A121D12688243864B32
:102600001B1D1A60704739B1834A0C3212680243AD
:10261000814B0C331A6006E07F4A0C321268824309
:102620007D4B0C331A60704739B17B4A1032126807
:102630000243794B10331A6006E0774A1032126871
:102640008243754B10331A60704739B1724A243A8D
:1026500012680243704B243B1A6006E06E4A243A2B
:10266000126882436C4B243B1A60704739B16A4A46
:10267000203A12680243684B203B1A6006E0664A23
:10268000203A12688243644B203B1A60704739B18C
:10269000614A1C3A126802435F4B1C3B1A6006E019
:1026A0005D4A1C3A126882435B4B1C3B1A607047C0
:1026B00039B1594A143A12680243574B143B1A6015
:1026C00006E0554A143A12688243534B143B1A6091
:1026D000704739B1504A103A126802434E4B103BD2
:1026E0001A6006E04C4A103A126882434A4B103B8B
:1026F0001A60704739B1484A1C3212680243464B8F
:102700001C331A6006E0444A1C3212688243424B72
:102710001C331A60704739B13F4A203212680243B5
:102720003D4B20331A6006E03B4A20321268824358
:10273000394B20331A60704739B1374A2432126856
:102740000243354B24331A6006E0334A24321268C0
:102750008243314B24331A60704739B12E4A2C32F0
:10276000126802432C4B2C331A6006E02A4A2C32A2
:1027700012688243284B2C331A60704739B1264ABD
:10278000303212680243244B30331A6006E0224A8A
:10279000303212688243204B30331A607047012870
:1027A00008D11D493C31096841F008011A4A3C3200
:1027B000116007E018493C31096821F00801164A08
:1027C0003C321160704739B1134A273A12780243FC
:1027D000114B273B1A7006E00F4A273A12788243C2
:1027E0000D4B273B1A7070470B484030006840F093
:1027F0008070094940310860704701460020064A50
:10280000283A12680A400AB1012000E0002070470F
:1028100001492639087070473438024010B5044623
:10282000FE48844208D101210846FFF752FF0021EB
:102830000120FFF74EFF9DE0B4F1804F08D1012148
:102840000846FFF735FF00210120FFF731FF91E037
:10285000F348844208D101210220FFF729FF00211B
:102860000220FFF725FF85E0EE48844208D10121D0
:102870000420FFF71DFF00210420FFF719FF79E076
:10288000E948844208D101210820FFF711FF002107
:102890000820FFF70DFF6DE0E448844208D10121D4
:1028A0001020FFF705FF00211020FFF701FF61E076
:1028B000DF48844208D101212020FFF7F9FE0021E2
:1028C0002020FFF7F5FE55E0DA48844208D10121C7
:1028D0000220FFF7FEFE00210220FFF7FAFE49E08A
:1028E000D548844209D101210804FFF7F2FE0021F6
:1028F0004FF48030FFF7EDFE3CE0D048844209D130
:1029000001214804FFF7E5FE00214FF40030FFF7F6
:10291000E0FE2FE0CA48844209D101218804FFF774
:10292000D8FE00214FF48020FFF7D3FE22E0C548F7
:10293000844208D101214020FFF7BAFE0021402047
:10294000FFF7B6FE16E0C048844208D1012180207E
:10295000FFF7AEFE00218020FFF7AAFE0AE0BB4889
:10296000844207D101218015FFF7A2FE0021A015A6
:10297000FFF79EFE10BD00220288A84B98420ED0A1
:10298000AC4B98420BD0B0F1804F08D0A44B98428A
:1029900005D0A44B984202D0A34B984204D14FF6E5
:1029A0008F731A404B881A43A04B984207D0A04B14
:1029B000984204D04FF6FF431A400B891A43028015
:1029C0004B68C3620B880385944B984202D0994BA5
:1029D000984201D18B7A03860123838270474FF09E
:1029E000FF31416000210180018141808172704787
:1029F0000185828270470A46002101884FF68F7355
:102A0000194011430180704741627047C1627047AD
:102A10000146486A70470146088D704721B1028817
:102A200042F00202028004E002884FF6FD731A4071
:102A30000280704721B1028842F00402028004E063
:102A400002884FF6FB731A400280704721B102885A
:102A500042F08002028004E002884FF67F731A4041
:102A60000280704702884FF6F7731A40028002888E
:102A70000A430280704702884FF6FF431A400280E3
:102A800002880A430280704721B1028842F00102A5
:102A9000028004E002884FF6FE731A4002807047FD
:102AA00070B5002400220023058C4FF6FE763540D9
:102AB0000584028C8388048B4FF68F752C40B51EDD
:102AC0002C400D882C43751E2A408D892A434D8841
:102AD0002A43524DA84202D0564DA84213D14FF678
:102AE000F7752A40CD892A434FF6FB752A408D8819
:102AF0002A434FF6FF652B404FF6FF552B400D8ABA
:102B00002B434D8A2B43838004838D684563028465
:102B100070BD70B5002400220023058C4FF6EF76BF
:102B200035400584028C8388048B48F6FF752C4061
:102B30004FF6FF452C400D884FF6FF7606EA052537
:102B40002C434FF6DF752A408D8906EA05152A4386
:102B50004D8806EA05152A43304DA84202D0354D6E
:102B6000A8421DD14FF67F752A40CD894FF6FF76DA
:102B700006EA05152A434FF6BF752A408D8806EAF6
:102B800005152A434FF6FF352B404FF2FF752B40BA
:102B90000D8A06EA85052B434D8A06EA85052B43F7
:102BA000838004838D688563028470BD70B50024C2
:102BB00000220023058C4FF6FF6635400584028C09
:102BC0008388848B4FF68F752C404FF6FC752C4014
:102BD0000D882C434FF6FF552A408D894FF6FF761E
:102BE00006EA05252A434D8806EA05252A430B4DAA
:102BF000A84202D00F4DA84238D14FF2FF752A40AB
:102C0000CD894FF6FF7606EA05252A434FF6FF35B4
:102C10002A408D8806EA05252A4319E00000014074
:102C20000004004000080040000C0040001000407C
:102C300000140040000401400040014000440140F5
:102C40000048014000180040001C004000200040E7
:102C50004EF6FF752B404DF6FF752B400D8A06EAA8
:102C600005152B434D8A06EA05152B438380848383
:102C70008D68C563028470BD70B5002200230024F6
:102C8000058C4EF6FF7635400584038C8488828B54
:102C900048F6FF752A404FF6FF452A400D884FF64B
:102CA000FF7606EA05252A434DF6FF752B408D89F0
:102CB00006EA05352B434D8806EA05352B43FE4DC4
:102CC000A84202D0FD4DA84208D14BF6FF752C401A
:102CD0000D8A4FF6FF7606EA85152C4384808283A1
:102CE0008D680564038470BD00210180418081806E
:102CF00081608181C18101824182704770B5034644
:102D0000002000241846183001258D40ACB21D8CDF
:102D1000A5431D8409B108290AD100EB61000568AB
:102D20004FF68F76354005600568154305600FE066
:102D30000D1FC5F34E052844056848F6FF7635405B
:102D4000056005684FF6FF7606EA02263543056002
:102D500070BD4163704781637047C1637047016410
:102D600070470A460021018B4FF68F7319401143BB
:102D7000018370470A460021018B48F6FF73194012
:102D80004FF6FF7303EA02231943018370470A4693
:102D90000021818B4FF68F73194011438183704757
:102DA0000A460021818B48F6FF7319404FF6FF73E6
:102DB00003EA02231943818370470A460021018BED
:102DC0004FF6F77319401143018370470A460021FB
:102DD000018B4FF2FF7319404FF6FF7303EA022392
:102DE0001943018370470A460021818B4FF6F77320
:102DF00019401143818370470A460021818B4FF2AD
:102E0000FF7319404FF6FF7303EA022319438183CE
:102E100070470A460021018B4FF6FB73194011439E
:102E2000018370470A460021018B4FF6FF3319409A
:102E30004FF6FF7303EA02231943018370470A46E2
:102E40000021818B4FF6FB7319401143818370473A
:102E50000A460021818B4FF6FF3319404FF6FF736E
:102E600003EA02231943818370470A460021018B3C
:102E70004FF67F7319401143018370470A460021C2
:102E8000018BC1F30E014FF6FF7303EA02231943CE
:102E9000018370470A460021818B4FF67F731940EA
:102EA0001143818370470A460021818BC1F30E01D3
:102EB0004FF6FF7303EA02231943818370470A46E2
:102EC0000021018C4FF6FD731940114301847047B6
:102ED0000A460021018C4FF6F77319401143018413
:102EE00070470A460021018C4FF6DF7319404FF6F8
:102EF000FF7303EA02131943018470470A46002155
:102F0000018C4FF67F7319404FF6FF7303EA0213EB
:102F10001943018470470A460021018C4FF6FF5384
:102F200019404FF6FF7303EA0223194301847047E7
:102F30000A460021018C4FF2FF7319404FF6FF73D0
:102F400003EA02231943018470470A460021018CD9
:102F50004DF6FF7319404FF6FF7303EA023319432E
:102F60000184704730B5002301248C40A3B2048C47
:102F70009C430484048C02FA01F5ADB22C43048412
:102F800030BD30B5002304248C40A3B2048C9C4394
:102F90000484048C02FA01F5ADB22C43048430BDE4
:102FA000828B4FF2FF331A408283828B4FF6FF737E
:102FB00003EA01231A4382837047F0B50C46154695
:102FC000002100220026078C4EF6FF7C07EA0C0742
:102FD0000784818B028C4FF6FF7707EA043640F6B0
:102FE000FF4739404FF6FF7707EA052739434FF689
:102FF000FF7707EA0337394345F6FF773A4046F44F
:1030000080573A4381830284F0BD828B4FF6F3737D
:103010001A408283828B0A4382837047F0B50C4644
:103020001546002100220026078C4FF6FF6C07EAA8
:103030000C070784818B028C4FF6FF7707EA042682
:103040004FF60C7739404FF6FF7707EA03172F4307
:1030500039434FF2FF573A4046F480773A43818331
:103060000284F0BD028B4FF2FF331A400283028BC1
:103070004FF6FF7303EA01231A4302837047F0B54A
:103080000C461546002100220026078C4FF6EF7CE7
:1030900007EA0C070784018B028C4FF6FF7707EADB
:1030A000041640F6FF4739404FF6FF7707EA03372B
:1030B00039434FF6FF7703E0000001400004014070
:1030C00007EA052739434FF65F773A4046F0100785
:1030D0003A4301830284F0BD028B4FF6F3731A402A
:1030E0000283028B0A4302837047F0B50C461546F3
:1030F00000210022068C4FF6FE773E400684018BAD
:10310000028C4FF60C7631407E1C06EA03162E43E5
:1031100031434FF6F576324044F0010632430183E5
:103120000284F0BD70B505460C46208850B923894D
:10313000A28861882846FFF7D8FFE1882846FFF774
:10314000CBFF25E0208804280AD12389A288618842
:103150002846FFF794FFE1882846FFF783FF17E032
:10316000208808280AD12389A28861882846FFF789
:1031700055FFE1882846FFF748FF09E02389A28828
:1031800061882846FFF719FFE1882846FFF708FF06
:1031900070BD002101804180012181800021C1801A
:1031A000018170472DE9F04105460C4600260127B4
:1031B000608808B9022600E00026A088012801D115
:1031C000022700E001272088A0B92389A28861880E
:1031D0002846FFF78AFFE1882846FFF77DFF23890D
:1031E0003A4631462846FFF74AFFE1882846FFF76E
:1031F00039FF13E02389A28861882846FFF73FFF43
:10320000E1882846FFF72EFF23893A4631462846B3
:10321000FFF76BFFE1882846FFF75EFFBDE8F0810E
:103220000146486B70470146886B70470146C86B82
:1032300070470146086C70470A884B881A438B8890
:103240001A43CB881A430B891A434B891A438B893B
:103250001A43A0F8442070470021018041808180FA
:10326000C180018141818181704731B1B0F8442032
:1032700042F40042A0F8442005E0B0F84420C2F334
:103280000E02A0F84420704721B1828842F0040267
:10329000828004E082884FF6FB731A408280704778
:1032A00021B1828842F00102828004E082884FF6D8
:1032B000FE731A40828070471AB183890B43838161
:1032C00002E083898B438381704781827047024685
:1032D0000020138A0B400BB1012000E00020704752
:1032E000CA430282704730B5024600200023002402
:1032F000158A05EA0103958905EA010413B10CB1A9
:10330000012000E0002030BDCA430282704741EA3C
:103310000203A0F8483070471AB183890B438381B8
:1033200002E083898B438381704721B1828842F018
:103330000802828004E082884FF6F7731A40828088
:10334000704701894FF6F8721140018170470A46B3
:10335000002101894FF68F73194011430181704795
:1033600030B504460D4629462046FFF7F0FF208978
:1033700040F00700208130BD2DE9F04104460D46A4
:1033800016461F46602D06D13B4601223146204697
:10339000FFF775FE05E03B46012231462046FFF768
:1033A000A4FE29462046FFF7D2FF208940F00700FF
:1033B0002081BDE8F08130B50C4600210189C9B2F9
:1033C0004FF6FF7505EA032515432543294301817F
:1033D00030BD2DE9F04105460E46174698460024BB
:1033E00043463A4631462846FFF7E5FF2C894FF61B
:1033F000F870044044F007044FF68F70044044F026
:1034000070042C81BDE8F081F0B504460D461646E7
:103410001F463B46324629462046FFF7CCFF20890F
:1034200040F480402081F0BD82884FF68F731A40AF
:10343000828082880A438280704702894FF6F8733F
:103440001A40028102890A430281704702894FF6BD
:103450007F731A40028102890A4302817047F0B5E6
:103460000C4615461E460021002200230189028BCE
:10347000038C4FF6F877394021434FF6FC473A402A
:1034800040F201173A434FF6DD773B404FF6FF77A6
:1034900007EA06172F433B43018102830384F0BDF3
:1034A00021B1828842F08002828004E082884FF657
:1034B0007F731A4082807047A0F850107047000058
:1034C00010B50446FA48844208D101211020FFF7C4
:1034D00000F900211020FFF7FCF857E0F54884427E
:1034E00009D101214804FFF7E3F800214FF400302F
:1034F000FFF7DEF84AE0F048844209D10121880450
:10350000FFF7D6F800214FF48020FFF7D1F83DE017
:10351000EA48844209D10121C804FFF7C9F8002113
:103520004FF40020FFF7C4F830E0E548844209D1A9
:1035300001210805FFF7BCF800214FF48010FFF7C8
:10354000B7F823E0DF48844208D101212020FFF7AB
:10355000C0F800212020FFF7BCF817E0DA488442C9
:1035600009D101218807FFF7A3F800214FF080401F
:10357000FFF79EF80AE0D548844207D101214005B3
:10358000FFF796F800216005FFF792F810BD2DE9CE
:10359000FF4705460E460024A14600BFA046B0895D
:1035A00000B100BF2C8A24F44054F08804432C82DC
:1035B000AC8941F20C608443B08831890843718939
:1035C00008430443AC81AC8A24F44074B0890443BA
:1035D000AC826846FEF7FDFEB548854202D0B94888
:1035E000854202D1DDF80C9001E0DDF80890A88951
:1035F00000F4004040B109EBC90000EB091031684C
:103600004900B0FBF1F707E009EBC90000EB091036
:1036100031688900B0FBF1F76420B7FBF0F00401DA
:103620002009642101FB1078A88900F4004040B112
:10363000322000EBC800B0FBF1F000F007000443BB
:1036400008E0322000EB08106421B0FBF1F000F03C
:103650000F0004432C81BDE8FF874FF41651016031
:1036600000218180C18001810C2141810021818163
:10367000704710B502460020108A20F470600B8855
:103680004C8823438C882343CC88234318431082DF
:1036900010BD0021018041808180C180704721B12F
:1036A000828942F40052828104E082894DF6FF73E0
:1036B0001A4082817047028B02F47F420283028BA0
:1036C0000A430283704721B1828942F40042828119
:1036D00003E08289C2F30E028281704721B1828A9F
:1036E00042F40062828204E0828A4FF2FF731A4041
:1036F00082827047C1F30802828070470146888841
:10370000C0F308007047028A4FF6F0731A40028235
:10371000028A0A430282704721B1828942F0020282
:10372000828104E082894FF6FD731A4082817047DE
:1037300082894FF2FF731A40828182890A43828113
:103740007047028A4FF6DF731A400282028A0A43E8
:103750000282704721B1028A42F48042028204E070
:10376000028A4BF6FF731A4002827047818941F04A
:1037700001018181704721B1828A42F00802828270
:1037800004E0828A4FF6F7731A4082827047028BF8
:10379000D2B20283028B42EA01220283704721B136
:1037A000828A42F02002828204E0828A4FF6DF732E
:1037B0001A408282704721B1828A42F010028282CE
:1037C00004E0828A4FF6EF731A4082827047828A41
:1037D0004FF6FB731A408282828A0A4382827047C4
:1037E00021B1828A42F00202828204E0828A4FF68C
:1037F000FD731A40828270471AB1838A0B43838219
:1038000002E0838A8B4383827047F0B5034600242D
:1038100000260025002040F66A17B94200D100BFFB
:103820001846C1F3421401F01F06012707FA06F5F6
:10383000012C01D10C3004E0022C01D1103000E049
:1038400014301AB107682F43076002E00768AF43DE
:103850000760F0BD02460020B1F5007F00D100BF37
:1038600013880B400BB1012000E00020704701F4E9
:103870000072B2F5007F00D100BFCA4302807047DA
:1038800070B50246002400230025002040F66A1689
:10389000B14200D100BFC1F3421501F01F03012660
:1038A00006FA03F3012D13D19689334017E0000087
:1038B000001001400044004000480040004C00401F
:1038C000005000400014014000780040007C00409F
:1038D000022D02D1168A334001E0968A33400C1241
:1038E000012606FA04F41688344013B10CB1012005
:1038F00000E0002070BD10B50022002340F66A14DD
:10390000A14200D100BF0A1201249440A3B2DC43BB
:10391000048010BD10B504466FF00400FEF7B6F841
:10392000E11704EB5171C1F3C701394A1170104618
:10393000007800EB4001C1EBC0104FF6FF7101EAC7
:10394000C0003449088010BD0146314A12784A430C
:103950004FF0E0235A6100229A611A46126942F040
:1039600001021A6100BF4FF0E022106900F001026D
:103970001AB100F48032002AF5D04FF0E02212692B
:1039800022F001024FF0E0231A6100229A61704791
:103990000146204A12884A434FF0E0235A61002230
:1039A0009A611A46126942F001021A6100BF4FF093
:1039B000E022106900F001021AB100F48032002AFE
:1039C000F5D04FF0E022126922F001024FF0E0231F
:1039D0001A6100229A61704770B504464FF407706F
:1039E00094FBF0F0C6B24FF4077094FBF0F100FBCB
:1039F000114085B205E04FF40770FFF7C9FF701E54
:103A0000C6B2002EF7D115B12846FFF7C1FF70BD31
:103A10002C0000202E00002000BF704700BF4C4A41
:103A2000128802F04002002AF9D0C2B2484B9A80B4
:103A3000704710B588B0044601210846FEF79AFD8C
:103A400001211020FEF7F0FD072209214148FEF771
:103A50007EFB07220A213F48FEF779FB4FF4C06046
:103A6000069002208DF81C008DF81D0000208DF8B6
:103A70001E0001208DF81F0006A93648FEF7DCFA6B
:103A800002940020ADF80C00ADF80E00ADF8100067
:103A9000ADF814000C20ADF8120002A92C48FFF775
:103AA00076FD01212A48FFF7FAFD012240F2255157
:103AB0002748FFF7AAFE25208DF8040003208DF883
:103AC00005008DF8060001208DF8070001A8FDF71C
:103AD00090FF08B010BD10B540F225511C48FFF70B
:103AE000CFFE10B31A48FFF709FEC4B21A48008887
:103AF00000F40040C8B91848008800F4804060B164
:103B00000A2C03D000201449088020E012480088C5
:103B100040F400401049088019E00D2C06D10E48F1
:103B2000008840F480400C49088010E00A48008872
:103B3000C0F30D0009490C5407480088401C064991
:103B4000088008460088C72801DD0020088010BDD5
:103B50000010014000000240340000203820002006
:103B60009FED3A0A5FEA920C53D000BFF0EC010AD5
:103B70000B1DB0EC011A60EEA00A41EE010AF5EE51
:103B8000C00AF1EE10FAC6BFB1EEE01A81ED001ADC
:103B900081ED000AF0EC010A191DB0EC011A60EE8B
:103BA000A00A41EE010AF5EEC00AF1EE10FAC6BF16
:103BB000B1EEE01A83ED001A83ED000AF0EC010A81
:103BC0000B1DB0EC011A60EEA00A41EE010AF5EE01
:103BD000C00AF1EE10FAC6BFB1EEE01A81ED001A8C
:103BE00081ED000AF0EC010A191DB0EC011A60EE3B
:103BF000A00A41EE010AF5EEC00AF1EE10FAC6BFC6
:103C0000B1EEE01A83ED001A83ED000ABCF1010C5D
:103C1000ACD112F0030208BF704700BFF0EC010AFC
:103C20000B46B0EC011A091D60EEA00A41EE010A34
:103C3000F5EEC00AF1EE10FAC6BFB1EEE01A83ED60
:103C4000001A83ED000A521EE8D170470000000000
:103C50002DE9F04F8D082DED048B82B00026AC4687
:103C60003446019506EB0C0909EB0C0A0AEB0C082B
:103C700000EBC60700EBC90900EBCA0A00EBC80855
:103C800097ED003AD9ED003ADAED006A98ED006A56
:103C900097ED010ADAED014A33EE265A73EE860AF1
:103CA00099ED014AD8ED015A30EE241A4FEA440B3F
:103CB00002EBCB0E70EE644A74EE251A35EE200A44
:103CC0009EED002ADEED012A87ED000A31EE210A81
:103CD00073EEC63A34EE656A87ED010A35EE600A86
:103CE00033EE663A71EE610A02EBC40774EEE35AF2
:103CF00033EE064A97ED005A73EEA41AD7ED014A47
:103D000033EE461A24EE056A0BEB040725EE855ABE
:103D100002EBC70760EE026A65EEA45A24EE244A5D
:103D200097ED003AD7ED013A60EEA24A20EE822AE2
:103D300021EE037A20EE220A61EEA30A21EE833AF5
:103D400061EE231A76EEA42A32EE400A36EE251AE8
:103D500075EE443AC9ED002A77EE200A89ED010A92
:103D600073EE611A8AED001ACAED013AC8ED000A35
:103D7000761CC8ED011A1C446D1E7FF473AF4FF61C
:103D8000FF7404EA830B019B0093042B7DD96646E4
:103D90004FEA9C0C4FF00008C146ACF1010E00BF89
:103DA0004FEA480303EB080402EBC30302EBC80528
:103DB00093ED003AD3ED014A02EBC40395ED005AAE
:103DC000D5ED015A93ED006A93ED014AD8444B4674
:103DD00003EB0C0404EB0C0707EB0C0A00EBC30528
:103DE00000EBC70700EBC40400EBCA0AD5ED003AAC
:103DF00097ED007AD4ED008A9AED008A95ED010ADC
:103E0000D4ED010AD7ED017ADAED011A33EEC72AB3
:103E100070EE676A70EEE12A33EE877A78EE883AC0
:103E200030EE270A38EEC81A70EEA11A72EE227A26
:103E300032EE622A77EE232A70EE618A36EEC18A6C
:103E400030EE210A77EE630A31EE261AC5ED002A1C
:103E500085ED010A28EE050A67EE856A28EE258AB7
:103E600020EE837A20EEA49A68EE831A62EE062A88
:103E700061EE063A62EE040A67EEA57A68EEA48A5D
:103E800021EE041A36EE882A00E027E077EE286A51
:103E900071EEC91A30EE670AC4ED006A32EE811A7B
:103EA000C4ED011A73EEE00A87ED002A87ED010ADE
:103EB0008AED001A3344CAED010A8B4288D309F116
:103EC0000109F1457FF66CAF4FF6FF7303EA8B0BE8
:103ED000009B9B080093042B3FF659AFDDF80410BC
:103EE00090ED000AD0ED042A90ED025A90ED031AED
:103EF000D0ED064A90ED073A30EE222AD0ED011AB5
:103F0000D0ED050A75EE243A31EE034A30EE620A2E
:103F100071EEA02A31EE431A32EE233A71EEE00A36
:103F200075EE641A72EE844A32EE632A72EEC43A77
:103F300080ED003A70EE012AC0ED014A30EEE14A10
:103F400080ED022A30EE410AC0ED033A71EEA00A7C
:103F5000C0ED042A80ED054A80ED060AC0ED070A8F
:103F60002030491EBCD102B0BDEC048BBDE8F08FFF
:103F70002DE9F04F4FEA910A2DED048B82B0002419
:103F8000D446A046CDF804A004EB0C0505EB0C06C6
:103F900006EB0C0900EBC40700EBC60600EBC505F9
:103FA00000EBC909D7ED011AD6ED012A95ED006A9B
:103FB000D9ED006AD7ED005A96ED007AD5ED010AE9
:103FC00099ED011A36EE262A71EEA23A35EE873ABD
:103FD00071EEE21A30EE815A70EEC12A4FEA480BB8
:103FE00002EBCB0E73EE020A9EED004ADEED014AB3
:103FF000C7ED000A73EE850A36EE666A75EEC75A9B
:10400000C7ED010A33EE422A02EBC80731EE861AE9
:1040100033EEC53A71EEC61A97ED006A97ED015A74
:1040200075EEE20A0BEB080702EBC70775EEA22A52
:10403000D7ED005AD7ED013A60EE866A22EE047A97
:1040400062EEA57A23EE044A21EE066A61EEA55AD5
:1040500060EE850A23EE243A22EE242A21EE051A88
:1040600061EEA31A62EEA32A76EE203A37EE433AC7
:1040700074EE020A36EEC11A85ED003A77EEE11AC7
:10408000C5ED010A35EEA22A86ED001AC6ED013A09
:10409000C9ED001A641C89ED012A9844BAF1010A9D
:1040A0007FF472AF4FF6FF7404EA830B019B009319
:1040B000042B7CD966464FEA9C0C4FF00008C146A1
:1040C000ACF1010E4FEA480303EB080402EBC30313
:1040D00002EBC805D3ED003A93ED017A02EBC4037D
:1040E000D5ED006AD5ED015AD3ED004A93ED013AC2
:1040F000D8444B4603EB0C0404EB0C0707EB0C0A0B
:1041000000EBC30500EBC70700EBC40400EBCA0AD1
:1041100095ED012A97ED018A95ED001AD4ED008AFC
:10412000D4ED017A97ED009ADAED001ADAED010A82
:1041300032EE485A71EE492A38EEE14A32EE082A48
:1041400037EEA08A37EEE06A78EEA11A31EE091A4E
:1041500075EE048A72EEC67A72EE862A71EE610AF4
:1041600031EE211A35EE444A32EE489A85ED001AB6
:1041700032EE081A28EEA66A27EEA65A68EEA58A3D
:1041800085ED011A20EEA31A69EE231A22EEA42A65
:1041900024EE248A67EEA57A29EE079A60EE870A54
:1041A00024EE034A62EE832A35EE685A00E027E0E7
:1041B00036EE276A71EE497A31EEA01A72EE440AA1
:1041C000C4ED007A84ED011A78EE221A87ED005AC8
:1041D00087ED016ACAED000A3344CAED011A8B4229
:1041E00088D309F10109F1457FF66CAF4FF6FF73F3
:1041F00003EA8B0B009B9B080093042B3FF65AAFFE
:10420000DDF8041090ED003AD0ED044AD0ED032A19
:1042100090ED071A90ED024AD0ED061AD0ED013A62
:10422000D0ED050A33EE242A72EE815A33EE643A59
:1042300034EE215A73EEA04A73EEE03A32EEC11A20
:1042400074EE610A32EE454A72EE052A74EEA51A42
:1042500034EEE55A73EE414A33EEA02A33EE011AEA
:1042600033EEE03A62EE805A61EE800A64EE003A84
:1042700065EE002AC0ED005A64EE801AC0ED010A16
:1042800022EE002AC0ED023A21EE004AC0ED032AD8
:1042900023EE001AC0ED041A80ED052A80ED064ACF
:1042A00080ED071A2030491EACD102B0BDEC048B62
:1042B000BDE8F08F70B504460D4680782188A3894B
:1042C000626801280ED02846FFF7C2FCE07801287A
:1042D00018BF70BDE28921882846A368BDE87040F8
:1042E00000F066B894ED040A2846FFF741FEEDE7BA
:1042F00010B40180234C446082704FF0000CC370F6
:10430000B1F5807F20D004DC10292FD0402906D1C0
:1043100022E0B1F5806F0FD0B1F5805F04D04FF08F
:10432000FF3C10BC6046704701218181C181164964
:104330009FED160A816016E004218181C181144934
:104340009FED140A81600EE010218181C181124924
:104350009FED120A816006E040218181C1811049F0
:104360009FED100A816080ED040ADAE74FF4807156
:104370008181C1810C499FED0D0A816080ED040AA5
:10438000CFE700006C8C00086C84000800008039C6
:10439000728400080000803A8A8400080000803B94
:1043A000EA8400080000803C6A8600080000803D26
:1043B0002DE9F0014E0801244FF0000C04EB5107E9
:1043C0006146A6F102082CE061452AD200EBCC053B
:1043D00000EBC104D5ED000A94ED000AC4ED000A1B
:1043E00085ED000AD5ED010A94ED010AC4ED010A3C
:1043F00085ED010ACC1900EBC4050CEB070400EBBA
:10440000C40495ED000AD4ED000AC5ED000A84ED60
:10441000000AD4ED010A95ED010AC5ED010A84ED0B
:10442000010A00EBC104B44400EBCC0C94ED020A89
:10443000DCED000A891CC4ED020A8CED000ADCEDFB
:10444000010A94ED030AC4ED030A8CED010AB3F8E6
:1044500000C089B203EB42034145B5D9BDE8F00184
:1044600070472DE9F00701254C0805EB51064FF088
:10447000000C651E6146002D88BFA8462ED8BDE8F9
:10448000F0077047614529D250F8315050F83C7020
:1044900040F8317040F83C5000EBC10700EBCC090C
:1044A0007D68D9F804A0C7F804A0C9F804508D1994
:1044B0000CEB060750F8359050F837A040F835A0BF
:1044C00040F8379000EBC50500EBC707D5F804901E
:1044D000D7F804A0C5F804A0C7F8049000EBC10504
:1044E000A444AF6850F83C90C5F8089040F83C7080
:1044F00000EBCC0CEF68DCF80490C5F80C90CCF81D
:104500000470B3F800C0891C03EB42034145B9D3E2
:10451000BDE8F00770472DE9F00F01244D084FF07A
:10452000000C04EB5107012D9CBFBDE8F00F704754
:10453000014600EB870400264FEA550815E000BF4E
:10454000BCEB460F11D950F82CA0D1F80090C1F85F
:1045500000A040F82C900CEB0709D4F800A050F80C
:1045600029B0C4F800B040F829A0AC44D1F80490B8
:1045700050F82CA0C1F804A040F82C90B3F800C06B
:1045800008310834761C03EB4203B8F10108D7D197
:10459000BDE8F00F7047704770477047704770472D
:1045A000754600F02BF8AE4605006946534620F0EC
:1045B0000700854618B020B5FDF704FABDE8204095
:1045C0004FF000064FF000074FF000084FF0000BCF
:1045D00021F00701AC46ACE8C009ACE8C009ACE882
:1045E000C009ACE8C0098D46704710B50446AFF36A
:1045F00000802046BDE81040FBF70FBE0048704722
:104600000021002021F00042A2F16052B2F5801F8B
:1046100001F0004328BFD2F17F6C0BD95FEA001C88
:1046200043EAC20242EB507018BF704728BF20F027
:1046300001007047B2F5801FBCBF184670474FEAB3
:10464000410C1CF5001F02D2084600F07CBA70B580
:1046500000F020FA00000089FFF7F6BF4FF000409D
:10466000A0F58000704700002DE9C04130B4DFF8AC
:10467000A0C23CEA111418BF3CEA131400F0EC800D
:1046800081EA03051CEA111444EAD57418BF1CEA38
:10469000131500F0C780A4EB05044FF0004545EA70
:1046A000C12145EAC32341EA505143EA525304F180
:1046B0007F74994204F500344FEAC0204FEAC222C9
:1046C00008BF904200F09C804FEA13650FF240163D
:1046D000765D4FEA134506FB05F7C7F1807706FBC9
:1046E00007F74FEAD737A7FB03687642C8F580384B
:1046F000A7FB06CE38BFA8F1010807FB08E64FF07C
:10470000000EA6FB028CE6FB03CEDCF1000CCEF122
:10471000004E38BFAEF1010EA6FB0C584FF000075B
:104720004FF00005E6FB0E87A1FB08C6A0FB07CEF5
:1047300016EB0E0645F10005E1FB076515F1E04EAD
:104740007EBFA4F580345FEA46066D4116F180070E
:1047500045F100054FEA17274FEA066647EA056765
:10476000A6F1DE46B6F1805F4FEA15251FD938461F
:1047700024F0010C05EBC471BCF1FE6F01EB0C11D0
:1047800002D8F0BCBDE8008124425CBF01F5801E68
:104790009EEAC47F02D4F0BCBDE80081244238D434
:1047A000F0BCA1F1C041BDE8004100F0C1B94FEA41
:1047B000D22242EA43524FEAD323A7FB02864FEAB2
:1047C000D02040EA415007FB03661EEA0E0F4FEA75
:1047D000D12105FB026658BFA6EB0056B6EB00568A
:1047E0004FEA520E4EEAC37E18EB0E0E56EB530EF6
:1047F000BDD518EB02085E417F1C55F10005B6E7F8
:104800004FF480154FF000074FF000064FF00008FE
:10481000ADE7F0BC4FF0000001F1C04101F00041F4
:10482000BDE8008111EA0C1F0CEA131500D00CE062
:1048300013EA0C1F00F025804FF00000F0BC81EA65
:10484000030101F00041BDE80081F0BCBDE800417A
:1048500081EA030100F06CB9F0BCBDE8004170B51D
:1048600000F018F9097EFC3E00F007B881EA030168
:104870004FF0000001F00041704781EA030100F0B1
:1048800057B9F0BCBDE800414FF000002149704726
:10489000FFFDFBF9F7F5F4F2F0EEEDEBE9E8E6E405
:1048A000E3E1E0DEDDDBDAD8D7D5D4D3D1D0CFCD8C
:1048B000CCCBCAC8C7C6C5C4C2C1C0BFBEBDBCBBC5
:1048C000BAB9B8B7B6B5B4B3B2B1B0AFAEADACABC0
:1048D000AAA9A8A8A7A6A5A4A3A3A2A1A09F9F9E9A
:1048E0009D9C9C9B9A99999897979695959493934C
:1048F000929191908F8F8E8E8D8C8C8B8B8A8989E3
:104900008888878786858584848383828281818065
:104910000000FF070000F87FB0FA80F310FA03F1FF
:104920000AD0C3F11D0303F580634FEA41504FEAFB
:10493000035202EBD12170474FF000007047000096
:10494000DFF848C170B51CEA111E1EBF1CEA131522
:104950009EEA0C0F95EA0C0F00F06F8081EA0304C9
:1049600023EA4C134EEAD47E21EA4C1141F4801123
:1049700043F48013AE44A1FB024CA0FB0365AEF1EF
:104980007F7E361955EB0C05A1FB034C4CF100035F
:10499000A0FB021C16EB0C06654153F10003094213
:1049A00018BF46F0010613F4007F0BD14FEA033124
:1049B0004FEA0530340341EA155140EA16506FF0D2
:1049C00003020AE04FEAC3214FEAC520F40241EA9C
:1049D000555140EA56506FF0020202EB2E4201EBB5
:1049E000025585EACE710AD05FEA440C18BF24F064
:1049F000004450F1000041F1000120EAD47040F27F
:104A0000FE7C624500D270BDA84214BF4FF08044C6
:104A10004FF04044002E08BF0024BEF1806FA8BFB5
:104A2000A1F1C041BDE8704080F282804FF00000EB
:104A300001F1C04101F0004170479EEA0C0F0CEA01
:104A4000131518BF95EA0C0F06D04FF0000081EA4D
:104A5000030E0EF0004170BD00F01CF88900013E0D
:104A600000F007B800F009B84FEA430C5FEA5C5C5D
:104A700008D081EA030100F05BB84FEA410C5FEA1D
:104A80005C5CF6D14FF00000014970470000FF0761
:104A90000000F87F0EF1020E2EF0030E5EF8046B9C
:104AA000364205D4012A43EB030515F5001F12D841
:104AB000012841EB010C1CF5001F0CD80ED14FEA68
:104AC000D17C15F5001F0CEB4C0C0CF1020C08BF4F
:104AD0004CEBD37C04E04FF0080C01E04FEAD37CB0
:104AE0000CEB4C0526FA05F606F00706B6F1040CA9
:104AF00006D20EEB860CBDE870404CF0010C60470E
:104B0000DFE80CF0090B02024FF000414FF000000B
:104B1000A1F5002170BD19461046012851EB010492
:104B200018BFD4F5001484BF002001F0004170BD0F
:104B30000808A0F500114FEA310170474FF04070AE
:104B4000E1EE100A7047FF2141EAD050C0057047DE
:104B5000000000000000000000000000000004044D
:104B6000040404000004000014140A000000000003
:104B70000000000000000A0A1F0A0A1F0A0A0000BB
:104B800000040E1505060C14150E04000000121585
:104B90000D152E2C2A1200000000040A0A361515E5
:104BA00029160000020201000000000000000000C1
:104BB000100808040404040408081000020404088F
:104BC000080808080404020000000004150E0E1571
:104BD0000400000000000008083E08080000000073
:104BE00000000000000000000202010000000000C0
:104BF000003F000000000000000000000000000076
:104C00000002000000201010080804040202010045
:104C100000000E1111111111110E00000000040608
:104C200004040404040E000000000E111108040224
:104C3000011F000000000E11100C1010110E0000DA
:104C40000000080C0C0A091F081C000000001F01CE
:104C5000010F1110110E000000000C12010D1311B4
:104C6000110E000000001E100808040404040000D7
:104C700000000E11110E1111110E000000000E1196
:104C800011191610090600000000000004000000C1
:104C90000004000000000000000400000004040004
:104CA00000001008040202040810000000000000C8
:104CB0003F003F0000000000000002040810100840
:104CC0000402000000000E1111080404000400009A
:104CD00000001C22292D2D1D221C000000000404B0
:104CE0000C0A0A1E1233000000000F12120E1212DC
:104CF000120F000000001E1101010101110E000041
:104D000000000F1212121212120F000000001F12E8
:104D10000A0E0A02121F000000001F120A0E0A02E9
:104D20000207000000001C1201013911120C0000E2
:104D300000003312121E12121233000000001F0472
:104D400004040404041F000000003E0808080808CA
:104D500008080907000037120A060A121237000075
:104D60000000070202020202223F000000003B1B7B
:104D70001B1B15151535000000003B1216161A1ADC
:104D80001217000000000E1111111111110E000078
:104D900000000F12120E02020207000000000E11A6
:104DA00011111117190E180000000F12120E0A121D
:104DB0001237000000001E1101060810110F00003C
:104DC00000001F1504040404040E00000000331248
:104DD00012121212120C000000003312120A0A0CF6
:104DE000040400000000151515150E0A0A0A00003B
:104DF00000001B0A0A04040A0A1B000000001B0A28
:104E00000A0A0404040E000000001F09080404023A
:104E1000121F00001C0404040404040404041C0005
:104E20000002020404040808081010000E08080814
:104E30000808080808080E00040A00000000000026
:104E40000000000000000000000000000000003F23
:104E5000020400000000000000000000000000004C
:104E6000000C121C123C000000030202020E12127F
:104E7000120E000000000000001C1202120C0000C4
:104E800000181010101C1212123C0000000000004C
:104E9000000C121E021C000000182404041E04044E
:104EA000041E000000000000003C120C021C221C2A
:104EB00000030202020E1212123700000004040066
:104EC00000060404040E000000080800000C080896
:104ED0000808080700030202021A0A060A13000063
:104EE0000007040404040404041F00000000000080
:104EF000000F15151515000000000000000F12121C
:104F00001237000000000000000C1212120C00000A
:104F100000000000000F1212120E02070000000035
:104F2000001C1212121C103800000000001B0602A8
:104F30000207000000000000001E020C101E00000E
:104F400000000004041E0404041C00000000000013
:104F5000001B1212123C000000000000001B0A0A95
:104F600004040000000000000015150E0A0A0000ED
:104F700000000000001B0A040A1B000000000000E3
:104F8000003312120C08040300000000001E080485
:104F9000041E000018080808080C08080808180073
:104FA000080808080808080808080808060404048F
:104FB00004080404040406001609000000000000B0
:104FC00000000000000000000000000000000000E1
:104FD0000000000000000008080808080808000099
:104FE0001818000000486C241200000000000000A7
:104FF000000000000000002424247F1212127F12FF
:10500000121200000000081C2A2A0A0C1828282A5C
:105010002A1C080800000022251515152A5854548A
:10502000542200000000000C1212120A76252911E9
:10503000916E00000006060403000000000000005E
:1050400000000000004020101008080808080810A0
:105050001020400000020408081010101010100862
:10506000080402000000000008086B1C1C6B080804
:105070000000000000000000080808087F08080879
:105080000800000000000000000000000000000018
:10509000060604030000000000000000FE000000FF
:1050A0000000000000000000000000000000000000
:1050B0000606000000008040402020101008080470
:1050C00004020200000000182442424242424242CE
:1050D00024180000000000080E0808080808080846
:1050E000083E00000000003C42424220201008041C
:1050F000427E00000000003C424220182040404216
:10510000221C0000000000203028242422227E20BF
:10511000207800000000007E0202021A2640404271
:10512000221C0000000000382402021A26424242DB
:10513000241800000000007E222210100808080831
:10514000080800000000003C424242241824424269
:10515000423C000000000018244242426458404093
:10516000241C0000000000000000181800000000CF
:1051700018180000000000000000000800000000F7
:105180000008080400000040201008040204081071
:10519000204000000000000000007F0000007F00B1
:1051A0000000000000000002040810204020100849
:1051B000040200000000003C424246402010100063
:1051C000181800000000001C225A555555552D4254
:1051D000221C00000000000808181414243C22427D
:1051E00042E700000000001F2222221E224242420B
:1051F000221F00000000007C424201010101014227
:10520000221C00000000001F224242424242424251
:10521000221F00000000003F4212121E1212024222
:10522000423F00000000003F4212121E1212020212
:10523000020700000000003C22220101017121222E
:10524000221C0000000000E7424242427E424242ED
:1052500042E700000000003E0808080808080808A7
:10526000083E00000000007C1010101010101010FC
:105270001010110F0000007722120A0E0A121222DB
:10528000227700000000000702020202020202026E
:10529000427F000000000077363636362A2A2A2A56
:1052A0002A6B0000000000E346464A4A525252620E
:1052B000624700000000001C224141414141414140
:1052C000221C00000000003F424242423E02020215
:1052D000020700000000001C2241414141414D53A2
:1052E000321C60000000003F4242423E1212222265
:1052F00042C700000000007C4242020418204042E5
:10530000423E00000000007F49080808080808081D
:10531000081C0000000000E7424242424242424272
:10532000423C0000000000E74242222424141418EA
:10533000080800000000006B4949494955553622CC
:1053400022220000000000E7422424181818242418
:1053500042E7000000000077222214140808080821
:10536000081C00000000007E2120101008040442E8
:10537000423F0000007808080808080808080808E4
:105380000808780000000202040408080810102031
:1053900020204040001E101010101010101010108F
:1053A00010101E0000384400000000000000000043
:1053B00000000000000000000000000000000000ED
:1053C000000000FF000608000000000000000000D0
:1053D00000000000000000000000003C4278444251
:1053E00042FC0000000000030202021A2642424270
:1053F000261A0000000000000000003844020202EB
:10540000443800000000006040404078444242427E
:1054100064D80000000000000000003C427E020250
:10542000423C0000000000F08808087E08080808D8
:10543000083E0000000000000000007C22221C0248
:105440003C42423C000000030202023A4642424211
:1054500042E700000000000C0C00000E08080808DD
:10546000083E0000000000303000003820202020DE
:105470002020221E0000000302020272120A1612ED
:10548000227700000000000E080808080808080835
:10549000083E0000000000000000007F92929292FF
:1054A00092B70000000000000000003B464242426C
:1054B00042E70000000000000000003C424242427F
:1054C000423C0000000000000000001B2642424257
:1054D000221E020700000000000000784442424201
:1054E000447840E000000000000000774C04040411
:1054F000041F0000000000000000007C42023C404D
:10550000423E0000000000000008083E08080808AD
:1055100008300000000000000000006342424242E8
:1055200062DC000000000000000000E742242414B8
:105530000808000000000000000000EB4949555534
:105540002222000000000000000000762418181835
:10555000246E000000000000000000E74224241434
:1055600018080807000000000000007E221008084C
:10557000447E000000C02020202020102020202079
:105580002020C0001010101010101010101010105B
:10559000101010100006080808080810080808086D
:1055A000080806000C32C2000000000000000000E5
:1055B00000000000000000000000000000000000EB
:1055C00000000000000000000000000000000000DB
:1055D00000000000000000000000000000000000CB
:1055E00000000000000000000000000060006000FB
:1055F000600060006000600060004000200020004B
:10560000200000000000000060006000600000005A
:1056100000000000000000006006600630039801F2
:1056200088004400000000000000000000000000AE
:10563000000000000000000000000000000000006A
:105640000000000000000000000000001002100236
:1056500010021002FE07FE070802080108010801F7
:105660000801FE07FE070401040104010401000013
:105670000000000000000000000040004000F001B9
:1056800058034C03CC034C0058007000E000C001EC
:10569000C00140034C035C034C034801F000400090
:1056A0004000000000000000000000000E010A01A0
:1056B000910091009100510051003A00AE03A00208
:1056C0005004500448044804480484028403000041
:1056D00000000000000000000000000038006C0026
:1056E0006C006C006C006C002C0098071C011A0107
:1056F000330133016301E300C308C6093C0700001E
:1057000000000000000000000C001C001000100051
:10571000080004000000000000000000000000007D
:105720000000000000000000000000000000000079
:1057300000000000000000000004000200018000E2
:1057400080004000400020002000200020002000B9
:105750002000200040004000800080000001000286
:105760000004000000000000020004000800100017
:105770001000200020004000400040004000400099
:10578000400040002000200010001000080004002D
:105790000200000000000000000000000000000007
:1057A0004000C0004000460C4E0FD001F0015E0FDB
:1057B000460C4000400040000000000000000000D7
:1057C00000000000000000000000000000000000D9
:1057D000000040004000400040004000FE0F40003C
:1057E00040004000400040000000000000000000B9
:1057F00000000000000000000000000000000000A9
:105800000000000000000000000000000000000098
:1058100000000000000000000C001C001000100040
:10582000080004000000000000000000000000006C
:10583000000000000000000000000000FE07000063
:105840000000000000000000000000000000000058
:105850000000000000000000000000000000000048
:105860000000000000000000000000000000000038
:1058700000000000000000001C001C001C000000D4
:105880000000000000000000000400060002000309
:105890000001000180008000400040006000200006
:1058A000200010001000080008000C000400060092
:1058B0000200000000000000000000000000F000F6
:1058C00098010C030C0306060606060606060606E5
:1058D0000606060606060C030C039801F0000000FD
:1058E0000000000000000000000000000000400078
:1058F0007C0060006000600060006000600060008C
:10590000600060006000600060006000FC03000058
:105910000000000000000000000000000000F8008F
:105920008401020306030603000300018001C00096
:10593000600020001000080204020602FE030000BE
:1059400000000000000000000000000000007800DF
:10595000C6008601860180018001C00070008001C0
:10596000000100030003060306038601F80000009F
:1059700000000000000000000000000000008001A6
:105980008001C001A001A00190018801880184016B
:105990008201FE0F8001800180018001E00700008C
:1059A0000000000000000000000000000000FC03F8
:1059B00004000400040004000400F4008C0104034B
:1059C000000300030603060382018401F8000000BF
:1059D0000000000000000000000000000000E001E6
:1059E00018030C030C0004000600E60116030E0663
:1059F00006060606060604060C021803F000000060
:105A00000000000000000000000000000000F80797
:105A10000C06040204010001000180008000400027
:105A20004000400060006000600060006000000016
:105A30000000000000000000000000000000F8016D
:105A40000C030606060606060C021C03F000C8013D
:105A50000C0306060606060606060C03F001000007
:105A60000000000000000000000000000000F00046
:105A70000C010C03060206060606060606078C063F
:105A800078060006000300030C018C01780000007A
:105A90000000000000000000000000000000000006
:105AA0000000000000000000E000E000E000000056
:105AB0000000000000000000E000E000E000000046
:105AC00000000000000000000000000000000000D6
:105AD0000000000000000000600060000000000006
